{
  "_format": "hh-sol-artifact-1",
  "contractName": "MyEpicNFT",
  "sourceName": "contracts/MyEpicNFT.sol",
  "abi": [
    {
      "inputs": [],
      "stateMutability": "nonpayable",
      "type": "constructor"
    },
    {
      "anonymous": false,
      "inputs": [
        {
          "indexed": true,
          "internalType": "address",
          "name": "owner",
          "type": "address"
        },
        {
          "indexed": true,
          "internalType": "address",
          "name": "approved",
          "type": "address"
        },
        {
          "indexed": true,
          "internalType": "uint256",
          "name": "tokenId",
          "type": "uint256"
        }
      ],
      "name": "Approval",
      "type": "event"
    },
    {
      "anonymous": false,
      "inputs": [
        {
          "indexed": true,
          "internalType": "address",
          "name": "owner",
          "type": "address"
        },
        {
          "indexed": true,
          "internalType": "address",
          "name": "operator",
          "type": "address"
        },
        {
          "indexed": false,
          "internalType": "bool",
          "name": "approved",
          "type": "bool"
        }
      ],
      "name": "ApprovalForAll",
      "type": "event"
    },
    {
      "anonymous": false,
      "inputs": [
        {
          "indexed": false,
          "internalType": "address",
          "name": "sender",
          "type": "address"
        },
        {
          "indexed": false,
          "internalType": "uint256",
          "name": "tokenId",
          "type": "uint256"
        }
      ],
      "name": "NewEpicNFTMinted",
      "type": "event"
    },
    {
      "anonymous": false,
      "inputs": [
        {
          "indexed": true,
          "internalType": "address",
          "name": "from",
          "type": "address"
        },
        {
          "indexed": true,
          "internalType": "address",
          "name": "to",
          "type": "address"
        },
        {
          "indexed": true,
          "internalType": "uint256",
          "name": "tokenId",
          "type": "uint256"
        }
      ],
      "name": "Transfer",
      "type": "event"
    },
    {
      "inputs": [
        {
          "internalType": "address",
          "name": "to",
          "type": "address"
        },
        {
          "internalType": "uint256",
          "name": "tokenId",
          "type": "uint256"
        }
      ],
      "name": "approve",
      "outputs": [],
      "stateMutability": "nonpayable",
      "type": "function"
    },
    {
      "inputs": [
        {
          "internalType": "address",
          "name": "owner",
          "type": "address"
        }
      ],
      "name": "balanceOf",
      "outputs": [
        {
          "internalType": "uint256",
          "name": "",
          "type": "uint256"
        }
      ],
      "stateMutability": "view",
      "type": "function"
    },
    {
      "inputs": [
        {
          "internalType": "uint256",
          "name": "tokenId",
          "type": "uint256"
        }
      ],
      "name": "getApproved",
      "outputs": [
        {
          "internalType": "address",
          "name": "",
          "type": "address"
        }
      ],
      "stateMutability": "view",
      "type": "function"
    },
    {
      "inputs": [],
      "name": "getTotalNFTsMintedSoFar",
      "outputs": [
        {
          "internalType": "uint256",
          "name": "",
          "type": "uint256"
        }
      ],
      "stateMutability": "view",
      "type": "function"
    },
    {
      "inputs": [
        {
          "internalType": "address",
          "name": "owner",
          "type": "address"
        },
        {
          "internalType": "address",
          "name": "operator",
          "type": "address"
        }
      ],
      "name": "isApprovedForAll",
      "outputs": [
        {
          "internalType": "bool",
          "name": "",
          "type": "bool"
        }
      ],
      "stateMutability": "view",
      "type": "function"
    },
    {
      "inputs": [],
      "name": "makeAnEpicNFT",
      "outputs": [],
      "stateMutability": "nonpayable",
      "type": "function"
    },
    {
      "inputs": [],
      "name": "name",
      "outputs": [
        {
          "internalType": "string",
          "name": "",
          "type": "string"
        }
      ],
      "stateMutability": "view",
      "type": "function"
    },
    {
      "inputs": [
        {
          "internalType": "uint256",
          "name": "tokenId",
          "type": "uint256"
        }
      ],
      "name": "ownerOf",
      "outputs": [
        {
          "internalType": "address",
          "name": "",
          "type": "address"
        }
      ],
      "stateMutability": "view",
      "type": "function"
    },
    {
      "inputs": [
        {
          "internalType": "uint256",
          "name": "tokenId",
          "type": "uint256"
        }
      ],
      "name": "pickRandomColor",
      "outputs": [
        {
          "internalType": "string",
          "name": "",
          "type": "string"
        }
      ],
      "stateMutability": "view",
      "type": "function"
    },
    {
      "inputs": [
        {
          "internalType": "uint256",
          "name": "tokenId",
          "type": "uint256"
        }
      ],
      "name": "pickRandomFirstWord",
      "outputs": [
        {
          "internalType": "string",
          "name": "",
          "type": "string"
        }
      ],
      "stateMutability": "view",
      "type": "function"
    },
    {
      "inputs": [
        {
          "internalType": "uint256",
          "name": "tokenId",
          "type": "uint256"
        }
      ],
      "name": "pickRandomSecondWord",
      "outputs": [
        {
          "internalType": "string",
          "name": "",
          "type": "string"
        }
      ],
      "stateMutability": "view",
      "type": "function"
    },
    {
      "inputs": [
        {
          "internalType": "uint256",
          "name": "tokenId",
          "type": "uint256"
        }
      ],
      "name": "pickRandomThirdWord",
      "outputs": [
        {
          "internalType": "string",
          "name": "",
          "type": "string"
        }
      ],
      "stateMutability": "view",
      "type": "function"
    },
    {
      "inputs": [
        {
          "internalType": "address",
          "name": "from",
          "type": "address"
        },
        {
          "internalType": "address",
          "name": "to",
          "type": "address"
        },
        {
          "internalType": "uint256",
          "name": "tokenId",
          "type": "uint256"
        }
      ],
      "name": "safeTransferFrom",
      "outputs": [],
      "stateMutability": "nonpayable",
      "type": "function"
    },
    {
      "inputs": [
        {
          "internalType": "address",
          "name": "from",
          "type": "address"
        },
        {
          "internalType": "address",
          "name": "to",
          "type": "address"
        },
        {
          "internalType": "uint256",
          "name": "tokenId",
          "type": "uint256"
        },
        {
          "internalType": "bytes",
          "name": "_data",
          "type": "bytes"
        }
      ],
      "name": "safeTransferFrom",
      "outputs": [],
      "stateMutability": "nonpayable",
      "type": "function"
    },
    {
      "inputs": [
        {
          "internalType": "address",
          "name": "operator",
          "type": "address"
        },
        {
          "internalType": "bool",
          "name": "approved",
          "type": "bool"
        }
      ],
      "name": "setApprovalForAll",
      "outputs": [],
      "stateMutability": "nonpayable",
      "type": "function"
    },
    {
      "inputs": [
        {
          "internalType": "bytes4",
          "name": "interfaceId",
          "type": "bytes4"
        }
      ],
      "name": "supportsInterface",
      "outputs": [
        {
          "internalType": "bool",
          "name": "",
          "type": "bool"
        }
      ],
      "stateMutability": "view",
      "type": "function"
    },
    {
      "inputs": [],
      "name": "symbol",
      "outputs": [
        {
          "internalType": "string",
          "name": "",
          "type": "string"
        }
      ],
      "stateMutability": "view",
      "type": "function"
    },
    {
      "inputs": [
        {
          "internalType": "uint256",
          "name": "tokenId",
          "type": "uint256"
        }
      ],
      "name": "tokenURI",
      "outputs": [
        {
          "internalType": "string",
          "name": "",
          "type": "string"
        }
      ],
      "stateMutability": "view",
      "type": "function"
    },
    {
      "inputs": [
        {
          "internalType": "address",
          "name": "from",
          "type": "address"
        },
        {
          "internalType": "address",
          "name": "to",
          "type": "address"
        },
        {
          "internalType": "uint256",
          "name": "tokenId",
          "type": "uint256"
        }
      ],
      "name": "transferFrom",
      "outputs": [],
      "stateMutability": "nonpayable",
      "type": "function"
    }
  ],
  "bytecode": "0x608060405260405180610160016040528061012f8152602001620045f761012f91396008908051906020019062000038929190620007fc565b506040518060c001604052806040518060400160405280600581526020017f4d6172636f00000000000000000000000000000000000000000000000000000081525081526020016040518060400160405280600581526020017f57656c6c7300000000000000000000000000000000000000000000000000000081525081526020016040518060400160405280600281526020017f697300000000000000000000000000000000000000000000000000000000000081525081526020016040518060400160405280600281526020017f416e00000000000000000000000000000000000000000000000000000000000081525081526020016040518060400160405280600881526020017f456e67696e65657200000000000000000000000000000000000000000000000081525081526020016040518060400160405280600481526020017f57697468000000000000000000000000000000000000000000000000000000008152508152506009906006620001b69291906200088d565b506040518060c001604052806040518060400160405280600181526020017f410000000000000000000000000000000000000000000000000000000000000081525081526020016040518060400160405280600381526020017f726564000000000000000000000000000000000000000000000000000000000081525081526020016040518060400160405280600381526020017f626d77000000000000000000000000000000000000000000000000000000000081525081526020016040518060400160405280600381526020017f653330000000000000000000000000000000000000000000000000000000000081525081526020016040518060400160405280600781526020017f535232304445540000000000000000000000000000000000000000000000000081525081526020016040518060400160405280600581526020017f436f757065000000000000000000000000000000000000000000000000000000815250815250600f906006620003349291906200088d565b506040518060c001604052806040518060400160405280600381526020017f416e64000000000000000000000000000000000000000000000000000000000081525081526020016040518060400160405280600281526020017f497300000000000000000000000000000000000000000000000000000000000081525081526020016040518060400160405280600481526020017f496e746f0000000000000000000000000000000000000000000000000000000081525081526020016040518060400160405280600681526020017f43727970746f000000000000000000000000000000000000000000000000000081525081526020016040518060400160405280600381526020017f416e64000000000000000000000000000000000000000000000000000000000081525081526020016040518060400160405280600581526020017f4e465427730000000000000000000000000000000000000000000000000000008152508152506015906006620004b29291906200088d565b506040518060c001604052806040518060400160405280600381526020017f726564000000000000000000000000000000000000000000000000000000000081525081526020016040518060400160405280600781526020017f233038433241380000000000000000000000000000000000000000000000000081525081526020016040518060400160405280600581526020017f626c61636b00000000000000000000000000000000000000000000000000000081525081526020016040518060400160405280600681526020017f79656c6c6f77000000000000000000000000000000000000000000000000000081525081526020016040518060400160405280600481526020017f626c75650000000000000000000000000000000000000000000000000000000081525081526020016040518060400160405280600581526020017f677265656e000000000000000000000000000000000000000000000000000000815250815250601b90600662000630929190620008e7565b503480156200063e57600080fd5b506040518060400160405280600881526020017f4d6172636f4e46540000000000000000000000000000000000000000000000008152506040518060400160405280601681526020017f52616e646f6d204e616d652047656e65726174696f6e000000000000000000008152508160009080519060200190620006c3929190620007fc565b508060019080519060200190620006dc929190620007fc565b5050506200072a6040518060400160405280601e81526020017f54686973206973206d79204e465420636f6e74726163742e20576f61682100008152506200073060201b620012491760201c565b62000b08565b620007d08160405160240162000747919062000a1c565b6040516020818303038152906040527f41304fac000000000000000000000000000000000000000000000000000000007bffffffffffffffffffffffffffffffffffffffffffffffffffffffff19166020820180517bffffffffffffffffffffffffffffffffffffffffffffffffffffffff8381831617835250505050620007d360201b60201c565b50565b60008151905060006a636f6e736f6c652e6c6f679050602083016000808483855afa5050505050565b8280546200080a9062000a92565b90600052602060002090601f0160209004810192826200082e57600085556200087a565b82601f106200084957805160ff19168380011785556200087a565b828001600101855582156200087a579182015b82811115620008795782518255916020019190600101906200085c565b5b5090506200088991906200094e565b5090565b8260068101928215620008d4579160200282015b82811115620008d3578251829080519060200190620008c2929190620007fc565b5091602001919060010190620008a1565b5b509050620008e391906200096d565b5090565b8280548282559060005260206000209081019282156200093b579160200282015b828111156200093a57825182908051906020019062000929929190620007fc565b509160200191906001019062000908565b5b5090506200094a91906200096d565b5090565b5b80821115620009695760008160009055506001016200094f565b5090565b5b8082111562000991576000818162000987919062000995565b506001016200096e565b5090565b508054620009a39062000a92565b6000825580601f10620009b75750620009d8565b601f016020900490600052602060002090810190620009d791906200094e565b5b50565b6000620009e88262000a40565b620009f4818562000a4b565b935062000a0681856020860162000a5c565b62000a118162000af7565b840191505092915050565b6000602082019050818103600083015262000a388184620009db565b905092915050565b600081519050919050565b600082825260208201905092915050565b60005b8381101562000a7c57808201518184015260208101905062000a5f565b8381111562000a8c576000848401525b50505050565b6000600282049050600182168062000aab57607f821691505b6020821081141562000ac25762000ac162000ac8565b5b50919050565b7f4e487b7100000000000000000000000000000000000000000000000000000000600052602260045260246000fd5b6000601f19601f8301169050919050565b613adf8062000b186000396000f3fe608060405234801561001057600080fd5b50600436106101215760003560e01c80636352211e116100ad578063b88d4fde11610071578063b88d4fde14610340578063c575757a1461035c578063c87b56dd1461038c578063de9d132f146103bc578063e985e9c5146103c657610121565b80636352211e1461027657806370a08231146102a657806395d89b41146102d6578063a22cb465146102f4578063b187301f1461031057610121565b8063095ea7b3116100f4578063095ea7b3146101c257806323b872dd146101de5780632de38d68146101fa57806342842e0e1461022a578063514dc8c61461024657610121565b806301ffc9a714610126578063060475901461015657806306fdde0314610174578063081812fc14610192575b600080fd5b610140600480360381019061013b9190612649565b6103f6565b60405161014d9190613355565b60405180910390f35b61015e6104d8565b60405161016b91906135d0565b60405180910390f35b61017c6104e9565b6040516101899190613370565b60405180910390f35b6101ac60048036038101906101a7919061269b565b61057b565b6040516101b991906132c5565b60405180910390f35b6101dc60048036038101906101d7919061260d565b610600565b005b6101f860048036038101906101f39190612507565b610718565b005b610214600480360381019061020f919061269b565b610778565b6040516102219190613370565b60405180910390f35b610244600480360381019061023f9190612507565b610889565b005b610260600480360381019061025b919061269b565b6108a9565b60405161026d9190613370565b60405180910390f35b610290600480360381019061028b919061269b565b6109c7565b60405161029d91906132c5565b60405180910390f35b6102c060048036038101906102bb91906124a2565b610a79565b6040516102cd91906135d0565b60405180910390f35b6102de610b31565b6040516102eb9190613370565b60405180910390f35b61030e600480360381019061030991906125d1565b610bc3565b005b61032a6004803603810190610325919061269b565b610bd9565b6040516103379190613370565b60405180910390f35b61035a60048036038101906103559190612556565b610cea565b005b6103766004803603810190610371919061269b565b610d4c565b6040516103839190613370565b60405180910390f35b6103a660048036038101906103a1919061269b565b610e5d565b6040516103b39190613370565b60405180910390f35b6103c4610faf565b005b6103e060048036038101906103db91906124cb565b6111b5565b6040516103ed9190613355565b60405180910390f35b60007f80ac58cd000000000000000000000000000000000000000000000000000000007bffffffffffffffffffffffffffffffffffffffffffffffffffffffff1916827bffffffffffffffffffffffffffffffffffffffffffffffffffffffff191614806104c157507f5b5e139f000000000000000000000000000000000000000000000000000000007bffffffffffffffffffffffffffffffffffffffffffffffffffffffff1916827bffffffffffffffffffffffffffffffffffffffffffffffffffffffff1916145b806104d157506104d0826112e2565b5b9050919050565b60006104e4600761134c565b905090565b6060600080546104f89061386f565b80601f01602080910402602001604051908101604052809291908181526020018280546105249061386f565b80156105715780601f1061054657610100808354040283529160200191610571565b820191906000526020600020905b81548152906001019060200180831161055457829003601f168201915b5050505050905090565b60006105868261135a565b6105c5576040517f08c379a00000000000000000000000000000000000000000000000000000000081526004016105bc90613530565b60405180910390fd5b6004600083815260200190815260200160002060009054906101000a900473ffffffffffffffffffffffffffffffffffffffff169050919050565b600061060b826109c7565b90508073ffffffffffffffffffffffffffffffffffffffff168373ffffffffffffffffffffffffffffffffffffffff16141561067c576040517f08c379a000000000000000000000000000000000000000000000000000000000815260040161067390613590565b60405180910390fd5b8073ffffffffffffffffffffffffffffffffffffffff1661069b6113c6565b73ffffffffffffffffffffffffffffffffffffffff1614806106ca57506106c9816106c46113c6565b6111b5565b5b610709576040517f08c379a000000000000000000000000000000000000000000000000000000000815260040161070090613470565b60405180910390fd5b61071383836113ce565b505050565b6107296107236113c6565b82611487565b610768576040517f08c379a000000000000000000000000000000000000000000000000000000000815260040161075f906135b0565b60405180910390fd5b610773838383611565565b505050565b606060006107ac610788846117c1565b604051602001610798919061325f565b60405160208183030381529060405261196e565b90506006816107bb91906138ea565b9050600981600681106107f7577f4e487b7100000000000000000000000000000000000000000000000000000000600052603260045260246000fd5b0180546108039061386f565b80601f016020809104026020016040519081016040528092919081815260200182805461082f9061386f565b801561087c5780601f106108515761010080835404028352916020019161087c565b820191906000526020600020905b81548152906001019060200180831161085f57829003601f168201915b5050505050915050919050565b6108a483838360405180602001604052806000815250610cea565b505050565b606060006108dd6108b9846117c1565b6040516020016108c991906132a3565b60405160208183030381529060405261196e565b9050601b80549050816108f091906138ea565b9050601b818154811061092c577f4e487b7100000000000000000000000000000000000000000000000000000000600052603260045260246000fd5b9060005260206000200180546109419061386f565b80601f016020809104026020016040519081016040528092919081815260200182805461096d9061386f565b80156109ba5780601f1061098f576101008083540402835291602001916109ba565b820191906000526020600020905b81548152906001019060200180831161099d57829003601f168201915b5050505050915050919050565b6000806002600084815260200190815260200160002060009054906101000a900473ffffffffffffffffffffffffffffffffffffffff169050600073ffffffffffffffffffffffffffffffffffffffff168173ffffffffffffffffffffffffffffffffffffffff161415610a70576040517f08c379a0000000000000000000000000000000000000000000000000000000008152600401610a67906134b0565b60405180910390fd5b80915050919050565b60008073ffffffffffffffffffffffffffffffffffffffff168273ffffffffffffffffffffffffffffffffffffffff161415610aea576040517f08c379a0000000000000000000000000000000000000000000000000000000008152600401610ae190613490565b60405180910390fd5b600360008373ffffffffffffffffffffffffffffffffffffffff1673ffffffffffffffffffffffffffffffffffffffff168152602001908152602001600020549050919050565b606060018054610b409061386f565b80601f0160208091040260200160405190810160405280929190818152602001828054610b6c9061386f565b8015610bb95780601f10610b8e57610100808354040283529160200191610bb9565b820191906000526020600020905b815481529060010190602001808311610b9c57829003601f168201915b5050505050905090565b610bd5610bce6113c6565b83836119a1565b5050565b60606000610c0d610be9846117c1565b604051602001610bf991906131f8565b60405160208183030381529060405261196e565b9050600681610c1c91906138ea565b9050600f8160068110610c58577f4e487b7100000000000000000000000000000000000000000000000000000000600052603260045260246000fd5b018054610c649061386f565b80601f0160208091040260200160405190810160405280929190818152602001828054610c909061386f565b8015610cdd5780601f10610cb257610100808354040283529160200191610cdd565b820191906000526020600020905b815481529060010190602001808311610cc057829003601f168201915b5050505050915050919050565b610cfb610cf56113c6565b83611487565b610d3a576040517f08c379a0000000000000000000000000000000000000000000000000000000008152600401610d31906135b0565b60405180910390fd5b610d4684848484611b0e565b50505050565b60606000610d80610d5c846117c1565b604051602001610d6c91906131d6565b60405160208183030381529060405261196e565b9050600681610d8f91906138ea565b905060158160068110610dcb577f4e487b7100000000000000000000000000000000000000000000000000000000600052603260045260246000fd5b018054610dd79061386f565b80601f0160208091040260200160405190810160405280929190818152602001828054610e039061386f565b8015610e505780601f10610e2557610100808354040283529160200191610e50565b820191906000526020600020905b815481529060010190602001808311610e3357829003601f168201915b5050505050915050919050565b6060610e688261135a565b610ea7576040517f08c379a0000000000000000000000000000000000000000000000000000000008152600401610e9e90613510565b60405180910390fd5b6000600660008481526020019081526020016000208054610ec79061386f565b80601f0160208091040260200160405190810160405280929190818152602001828054610ef39061386f565b8015610f405780601f10610f1557610100808354040283529160200191610f40565b820191906000526020600020905b815481529060010190602001808311610f2357829003601f168201915b505050505090506000610f51611b6a565b9050600081511415610f67578192505050610faa565b600082511115610f9c578082604051602001610f84929190613130565b60405160208183030381529060405292505050610faa565b610fa584611b81565b925050505b919050565b6000610fbb600761134c565b90506000610fc882610778565b90506000610fd583610bd9565b90506000610fe284610d4c565b90506000838383604051602001610ffb93929190613154565b60405160208183030381529060405290506000600882604051602001611022929190613185565b604051602081830303815290604052905060006110678361104284611c28565b60405160200161105392919061321a565b604051602081830303815290604052611c28565b905060008160405160200161107c9190613281565b60405160208183030381529060405290506110cb6040518060400160405280601581526020017f0a2d2d2d2d2d2d2d2d2d2d2d2d2d2d2d2d2d2d2d2d0000000000000000000000815250611249565b6110f3816040516020016110df91906131b4565b604051602081830303815290604052611249565b6111316040518060400160405280601581526020017f2d2d2d2d2d2d2d2d2d2d2d2d2d2d2d2d2d2d2d2d0a0000000000000000000000815250611249565b61113b3389611de6565b6111458882611e04565b61114f6007611e78565b611172604051806060016040528060258152602001613a45602591398933611e8e565b7febb98688741ffa4c7589bf325de30cf7becb63de567842e1ccdb6cb949fdc82c33896040516111a392919061332c565b60405180910390a15050505050505050565b6000600560008473ffffffffffffffffffffffffffffffffffffffff1673ffffffffffffffffffffffffffffffffffffffff16815260200190815260200160002060008373ffffffffffffffffffffffffffffffffffffffff1673ffffffffffffffffffffffffffffffffffffffff16815260200190815260200160002060009054906101000a900460ff16905092915050565b6112df8160405160240161125d9190613370565b6040516020818303038152906040527f41304fac000000000000000000000000000000000000000000000000000000007bffffffffffffffffffffffffffffffffffffffffffffffffffffffff19166020820180517bffffffffffffffffffffffffffffffffffffffffffffffffffffffff8381831617835250505050611f2d565b50565b60007f01ffc9a7000000000000000000000000000000000000000000000000000000007bffffffffffffffffffffffffffffffffffffffffffffffffffffffff1916827bffffffffffffffffffffffffffffffffffffffffffffffffffffffff1916149050919050565b600081600001549050919050565b60008073ffffffffffffffffffffffffffffffffffffffff166002600084815260200190815260200160002060009054906101000a900473ffffffffffffffffffffffffffffffffffffffff1673ffffffffffffffffffffffffffffffffffffffff1614159050919050565b600033905090565b816004600083815260200190815260200160002060006101000a81548173ffffffffffffffffffffffffffffffffffffffff021916908373ffffffffffffffffffffffffffffffffffffffff160217905550808273ffffffffffffffffffffffffffffffffffffffff16611441836109c7565b73ffffffffffffffffffffffffffffffffffffffff167f8c5be1e5ebec7d5bd14f71427d1e84f3dd0314c0f7b2291e5b200ac8c7c3b92560405160405180910390a45050565b60006114928261135a565b6114d1576040517f08c379a00000000000000000000000000000000000000000000000000000000081526004016114c890613450565b60405180910390fd5b60006114dc836109c7565b90508073ffffffffffffffffffffffffffffffffffffffff168473ffffffffffffffffffffffffffffffffffffffff16148061154b57508373ffffffffffffffffffffffffffffffffffffffff166115338461057b565b73ffffffffffffffffffffffffffffffffffffffff16145b8061155c575061155b81856111b5565b5b91505092915050565b8273ffffffffffffffffffffffffffffffffffffffff16611585826109c7565b73ffffffffffffffffffffffffffffffffffffffff16146115db576040517f08c379a00000000000000000000000000000000000000000000000000000000081526004016115d290613550565b60405180910390fd5b600073ffffffffffffffffffffffffffffffffffffffff168273ffffffffffffffffffffffffffffffffffffffff16141561164b576040517f08c379a000000000000000000000000000000000000000000000000000000000815260040161164290613410565b60405180910390fd5b611656838383611f56565b6116616000826113ce565b6001600360008573ffffffffffffffffffffffffffffffffffffffff1673ffffffffffffffffffffffffffffffffffffffff16815260200190815260200160002060008282546116b19190613785565b925050819055506001600360008473ffffffffffffffffffffffffffffffffffffffff1673ffffffffffffffffffffffffffffffffffffffff168152602001908152602001600020600082825461170891906136a4565b92505081905550816002600083815260200190815260200160002060006101000a81548173ffffffffffffffffffffffffffffffffffffffff021916908373ffffffffffffffffffffffffffffffffffffffff160217905550808273ffffffffffffffffffffffffffffffffffffffff168473ffffffffffffffffffffffffffffffffffffffff167fddf252ad1be2c89b69c2b068fc378daa952ba7f163c4a11628f55a4df523b3ef60405160405180910390a4505050565b60606000821415611809576040518060400160405280600181526020017f30000000000000000000000000000000000000000000000000000000000000008152509050611969565b600082905060005b6000821461183b578080611824906138a1565b915050600a8261183491906136fa565b9150611811565b60008167ffffffffffffffff81111561187d577f4e487b7100000000000000000000000000000000000000000000000000000000600052604160045260246000fd5b6040519080825280601f01601f1916602001820160405280156118af5781602001600182028036833780820191505090505b5090505b60008514611962576001826118c89190613785565b9150600a856118d791906138ea565b60306118e391906136a4565b60f81b81838151811061191f577f4e487b7100000000000000000000000000000000000000000000000000000000600052603260045260246000fd5b60200101907effffffffffffffffffffffffffffffffffffffffffffffffffffffffffffff1916908160001a905350600a8561195b91906136fa565b94506118b3565b8093505050505b919050565b6000816040516020016119819190613119565b6040516020818303038152906040528051906020012060001c9050919050565b8173ffffffffffffffffffffffffffffffffffffffff168373ffffffffffffffffffffffffffffffffffffffff161415611a10576040517f08c379a0000000000000000000000000000000000000000000000000000000008152600401611a0790613430565b60405180910390fd5b80600560008573ffffffffffffffffffffffffffffffffffffffff1673ffffffffffffffffffffffffffffffffffffffff16815260200190815260200160002060008473ffffffffffffffffffffffffffffffffffffffff1673ffffffffffffffffffffffffffffffffffffffff16815260200190815260200160002060006101000a81548160ff0219169083151502179055508173ffffffffffffffffffffffffffffffffffffffff168373ffffffffffffffffffffffffffffffffffffffff167f17307eab39ab6107e8899845ad3d59bd9653f200f220920489ca2b5937696c3183604051611b019190613355565b60405180910390a3505050565b611b19848484611565565b611b2584848484611f5b565b611b64576040517f08c379a0000000000000000000000000000000000000000000000000000000008152600401611b5b906133d0565b60405180910390fd5b50505050565b606060405180602001604052806000815250905090565b6060611b8c8261135a565b611bcb576040517f08c379a0000000000000000000000000000000000000000000000000000000008152600401611bc290613570565b60405180910390fd5b6000611bd5611b6a565b90506000815111611bf55760405180602001604052806000815250611c20565b80611bff846117c1565b604051602001611c10929190613130565b6040516020818303038152906040525b915050919050565b60606000825190506000811415611c515760405180602001604052806000815250915050611de1565b60006003600283611c6291906136a4565b611c6c91906136fa565b6004611c78919061372b565b90506000602082611c8991906136a4565b67ffffffffffffffff811115611cc8577f4e487b7100000000000000000000000000000000000000000000000000000000600052604160045260246000fd5b6040519080825280601f01601f191660200182016040528015611cfa5781602001600182028036833780820191505090505b5090506000604051806060016040528060408152602001613a6a604091399050600181016020830160005b86811015611d9e5760038101905062ffffff818a015116603f8160121c168401518060081b905060ff603f83600c1c1686015116810190508060081b905060ff603f8360061c1686015116810190508060081b905060ff603f831686015116810190508060e01b90508084526004840193505050611d25565b506003860660018114611db85760028114611dc857611dd3565b613d3d60f01b6002830352611dd3565b603d60f81b60018303525b508484525050819450505050505b919050565b611e008282604051806020016040528060008152506120f2565b5050565b611e0d8261135a565b611e4c576040517f08c379a0000000000000000000000000000000000000000000000000000000008152600401611e43906134d0565b60405180910390fd5b80600660008481526020019081526020016000209080519060200190611e7392919061232e565b505050565b6001816000016000828254019250508190555050565b611f28838383604051602401611ea693929190613392565b6040516020818303038152906040527fe3849f79000000000000000000000000000000000000000000000000000000007bffffffffffffffffffffffffffffffffffffffffffffffffffffffff19166020820180517bffffffffffffffffffffffffffffffffffffffffffffffffffffffff8381831617835250505050611f2d565b505050565b60008151905060006a636f6e736f6c652e6c6f679050602083016000808483855afa5050505050565b505050565b6000611f7c8473ffffffffffffffffffffffffffffffffffffffff1661214d565b156120e5578373ffffffffffffffffffffffffffffffffffffffff1663150b7a02611fa56113c6565b8786866040518563ffffffff1660e01b8152600401611fc794939291906132e0565b602060405180830381600087803b158015611fe157600080fd5b505af192505050801561201257506040513d601f19601f8201168201806040525081019061200f9190612672565b60015b612095573d8060008114612042576040519150601f19603f3d011682016040523d82523d6000602084013e612047565b606091505b5060008151141561208d576040517f08c379a0000000000000000000000000000000000000000000000000000000008152600401612084906133d0565b60405180910390fd5b805181602001fd5b63150b7a0260e01b7bffffffffffffffffffffffffffffffffffffffffffffffffffffffff1916817bffffffffffffffffffffffffffffffffffffffffffffffffffffffff1916149150506120ea565b600190505b949350505050565b6120fc8383612160565b6121096000848484611f5b565b612148576040517f08c379a000000000000000000000000000000000000000000000000000000000815260040161213f906133d0565b60405180910390fd5b505050565b600080823b905060008111915050919050565b600073ffffffffffffffffffffffffffffffffffffffff168273ffffffffffffffffffffffffffffffffffffffff1614156121d0576040517f08c379a00000000000000000000000000000000000000000000000000000000081526004016121c7906134f0565b60405180910390fd5b6121d98161135a565b15612219576040517f08c379a0000000000000000000000000000000000000000000000000000000008152600401612210906133f0565b60405180910390fd5b61222560008383611f56565b6001600360008473ffffffffffffffffffffffffffffffffffffffff1673ffffffffffffffffffffffffffffffffffffffff168152602001908152602001600020600082825461227591906136a4565b92505081905550816002600083815260200190815260200160002060006101000a81548173ffffffffffffffffffffffffffffffffffffffff021916908373ffffffffffffffffffffffffffffffffffffffff160217905550808273ffffffffffffffffffffffffffffffffffffffff16600073ffffffffffffffffffffffffffffffffffffffff167fddf252ad1be2c89b69c2b068fc378daa952ba7f163c4a11628f55a4df523b3ef60405160405180910390a45050565b82805461233a9061386f565b90600052602060002090601f01602090048101928261235c57600085556123a3565b82601f1061237557805160ff19168380011785556123a3565b828001600101855582156123a3579182015b828111156123a2578251825591602001919060010190612387565b5b5090506123b091906123b4565b5090565b5b808211156123cd5760008160009055506001016123b5565b5090565b60006123e46123df8461361c565b6135eb565b9050828152602081018484840111156123fc57600080fd5b61240784828561382d565b509392505050565b60008135905061241e816139e8565b92915050565b600081359050612433816139ff565b92915050565b60008135905061244881613a16565b92915050565b60008151905061245d81613a16565b92915050565b600082601f83011261247457600080fd5b81356124848482602086016123d1565b91505092915050565b60008135905061249c81613a2d565b92915050565b6000602082840312156124b457600080fd5b60006124c28482850161240f565b91505092915050565b600080604083850312156124de57600080fd5b60006124ec8582860161240f565b92505060206124fd8582860161240f565b9150509250929050565b60008060006060848603121561251c57600080fd5b600061252a8682870161240f565b935050602061253b8682870161240f565b925050604061254c8682870161248d565b9150509250925092565b6000806000806080858703121561256c57600080fd5b600061257a8782880161240f565b945050602061258b8782880161240f565b935050604061259c8782880161248d565b925050606085013567ffffffffffffffff8111156125b957600080fd5b6125c587828801612463565b91505092959194509250565b600080604083850312156125e457600080fd5b60006125f28582860161240f565b925050602061260385828601612424565b9150509250929050565b6000806040838503121561262057600080fd5b600061262e8582860161240f565b925050602061263f8582860161248d565b9150509250929050565b60006020828403121561265b57600080fd5b600061266984828501612439565b91505092915050565b60006020828403121561268457600080fd5b60006126928482850161244e565b91505092915050565b6000602082840312156126ad57600080fd5b60006126bb8482850161248d565b91505092915050565b6126cd816137b9565b82525050565b6126dc816137cb565b82525050565b60006126ed82613661565b6126f78185613677565b935061270781856020860161383c565b612710816139d7565b840191505092915050565b60006127268261366c565b6127308185613688565b935061274081856020860161383c565b612749816139d7565b840191505092915050565b600061275f8261366c565b6127698185613699565b935061277981856020860161383c565b80840191505092915050565b600081546127928161386f565b61279c8186613699565b945060018216600081146127b757600181146127c8576127fb565b60ff198316865281860193506127fb565b6127d18561364c565b60005b838110156127f3578154818901526001820191506020810190506127d4565b838801955050505b50505092915050565b6000612811602583613699565b91507f68747470733a2f2f6e6674707265766965772e30786465762e636f6465732f3f60008301527f636f64653d0000000000000000000000000000000000000000000000000000006020830152602582019050919050565b6000612877603283613688565b91507f4552433732313a207472616e7366657220746f206e6f6e20455243373231526560008301527f63656976657220696d706c656d656e74657200000000000000000000000000006020830152604082019050919050565b60006128dd601c83613688565b91507f4552433732313a20746f6b656e20616c7265616479206d696e746564000000006000830152602082019050919050565b600061291d600a83613699565b91507f54484952445f574f5244000000000000000000000000000000000000000000006000830152600a82019050919050565b600061295d602483613688565b91507f4552433732313a207472616e7366657220746f20746865207a65726f2061646460008301527f72657373000000000000000000000000000000000000000000000000000000006020830152604082019050919050565b60006129c3601983613688565b91507f4552433732313a20617070726f766520746f2063616c6c6572000000000000006000830152602082019050919050565b6000612a03606383613699565b91507f222c20226465736372697074696f6e223a20224120686967686c79206163636c60008301527f61696d656420636f6c6c656374696f6e206f6620737175617265732e222c202260208301527f696d616765223a2022646174613a696d6167652f7376672b786d6c3b6261736560408301527f36342c00000000000000000000000000000000000000000000000000000000006060830152606382019050919050565b6000612ab5600b83613699565b91507f5345434f4e445f574f52440000000000000000000000000000000000000000006000830152600b82019050919050565b6000612af5602c83613688565b91507f4552433732313a206f70657261746f7220717565727920666f72206e6f6e657860008301527f697374656e7420746f6b656e00000000000000000000000000000000000000006020830152604082019050919050565b6000612b5b600d83613699565b91507f3c2f746578743e3c2f7376673e000000000000000000000000000000000000006000830152600d82019050919050565b6000612b9b603883613688565b91507f4552433732313a20617070726f76652063616c6c6572206973206e6f74206f7760008301527f6e6572206e6f7220617070726f76656420666f7220616c6c00000000000000006020830152604082019050919050565b6000612c01602a83613688565b91507f4552433732313a2062616c616e636520717565727920666f7220746865207a6560008301527f726f2061646472657373000000000000000000000000000000000000000000006020830152604082019050919050565b6000612c67602983613688565b91507f4552433732313a206f776e657220717565727920666f72206e6f6e657869737460008301527f656e7420746f6b656e00000000000000000000000000000000000000000000006020830152604082019050919050565b6000612ccd602e83613688565b91507f45524337323155524953746f726167653a2055524920736574206f66206e6f6e60008301527f6578697374656e7420746f6b656e0000000000000000000000000000000000006020830152604082019050919050565b6000612d33600283613699565b91507f227d0000000000000000000000000000000000000000000000000000000000006000830152600282019050919050565b6000612d73602083613688565b91507f4552433732313a206d696e7420746f20746865207a65726f20616464726573736000830152602082019050919050565b6000612db3603183613688565b91507f45524337323155524953746f726167653a2055524920717565727920666f722060008301527f6e6f6e6578697374656e7420746f6b656e0000000000000000000000000000006020830152604082019050919050565b6000612e19602c83613688565b91507f4552433732313a20617070726f76656420717565727920666f72206e6f6e657860008301527f697374656e7420746f6b656e00000000000000000000000000000000000000006020830152604082019050919050565b6000612e7f602983613688565b91507f4552433732313a207472616e73666572206f6620746f6b656e2074686174206960008301527f73206e6f74206f776e00000000000000000000000000000000000000000000006020830152604082019050919050565b6000612ee5602f83613688565b91507f4552433732314d657461646174613a2055524920717565727920666f72206e6f60008301527f6e6578697374656e7420746f6b656e00000000000000000000000000000000006020830152604082019050919050565b6000612f4b600a83613699565b91507f7b226e616d65223a2022000000000000000000000000000000000000000000006000830152600a82019050919050565b6000612f8b602183613688565b91507f4552433732313a20617070726f76616c20746f2063757272656e74206f776e6560008301527f72000000000000000000000000000000000000000000000000000000000000006020830152604082019050919050565b6000612ff1600a83613699565b91507f46495253545f574f5244000000000000000000000000000000000000000000006000830152600a82019050919050565b6000613031601d83613699565b91507f646174613a6170706c69636174696f6e2f6a736f6e3b6261736536342c0000006000830152601d82019050919050565b6000613071603183613688565b91507f4552433732313a207472616e736665722063616c6c6572206973206e6f74206f60008301527f776e6572206e6f7220617070726f7665640000000000000000000000000000006020830152604082019050919050565b60006130d7600583613699565b91507f434f4c4f520000000000000000000000000000000000000000000000000000006000830152600582019050919050565b61311381613823565b82525050565b60006131258284612754565b915081905092915050565b600061313c8285612754565b91506131488284612754565b91508190509392505050565b60006131608286612754565b915061316c8285612754565b91506131788284612754565b9150819050949350505050565b60006131918285612785565b915061319d8284612754565b91506131a882612b4e565b91508190509392505050565b60006131bf82612804565b91506131cb8284612754565b915081905092915050565b60006131e182612910565b91506131ed8284612754565b915081905092915050565b600061320382612aa8565b915061320f8284612754565b915081905092915050565b600061322582612f3e565b91506132318285612754565b915061323c826129f6565b91506132488284612754565b915061325382612d26565b91508190509392505050565b600061326a82612fe4565b91506132768284612754565b915081905092915050565b600061328c82613024565b91506132988284612754565b915081905092915050565b60006132ae826130ca565b91506132ba8284612754565b915081905092915050565b60006020820190506132da60008301846126c4565b92915050565b60006080820190506132f560008301876126c4565b61330260208301866126c4565b61330f604083018561310a565b818103606083015261332181846126e2565b905095945050505050565b600060408201905061334160008301856126c4565b61334e602083018461310a565b9392505050565b600060208201905061336a60008301846126d3565b92915050565b6000602082019050818103600083015261338a818461271b565b905092915050565b600060608201905081810360008301526133ac818661271b565b90506133bb602083018561310a565b6133c860408301846126c4565b949350505050565b600060208201905081810360008301526133e98161286a565b9050919050565b60006020820190508181036000830152613409816128d0565b9050919050565b6000602082019050818103600083015261342981612950565b9050919050565b60006020820190508181036000830152613449816129b6565b9050919050565b6000602082019050818103600083015261346981612ae8565b9050919050565b6000602082019050818103600083015261348981612b8e565b9050919050565b600060208201905081810360008301526134a981612bf4565b9050919050565b600060208201905081810360008301526134c981612c5a565b9050919050565b600060208201905081810360008301526134e981612cc0565b9050919050565b6000602082019050818103600083015261350981612d66565b9050919050565b6000602082019050818103600083015261352981612da6565b9050919050565b6000602082019050818103600083015261354981612e0c565b9050919050565b6000602082019050818103600083015261356981612e72565b9050919050565b6000602082019050818103600083015261358981612ed8565b9050919050565b600060208201905081810360008301526135a981612f7e565b9050919050565b600060208201905081810360008301526135c981613064565b9050919050565b60006020820190506135e5600083018461310a565b92915050565b6000604051905081810181811067ffffffffffffffff82111715613612576136116139a8565b5b8060405250919050565b600067ffffffffffffffff821115613637576136366139a8565b5b601f19601f8301169050602081019050919050565b60008190508160005260206000209050919050565b600081519050919050565b600081519050919050565b600082825260208201905092915050565b600082825260208201905092915050565b600081905092915050565b60006136af82613823565b91506136ba83613823565b9250827fffffffffffffffffffffffffffffffffffffffffffffffffffffffffffffffff038211156136ef576136ee61391b565b5b828201905092915050565b600061370582613823565b915061371083613823565b9250826137205761371f61394a565b5b828204905092915050565b600061373682613823565b915061374183613823565b9250817fffffffffffffffffffffffffffffffffffffffffffffffffffffffffffffffff048311821515161561377a5761377961391b565b5b828202905092915050565b600061379082613823565b915061379b83613823565b9250828210156137ae576137ad61391b565b5b828203905092915050565b60006137c482613803565b9050919050565b60008115159050919050565b60007fffffffff0000000000000000000000000000000000000000000000000000000082169050919050565b600073ffffffffffffffffffffffffffffffffffffffff82169050919050565b6000819050919050565b82818337600083830152505050565b60005b8381101561385a57808201518184015260208101905061383f565b83811115613869576000848401525b50505050565b6000600282049050600182168061388757607f821691505b6020821081141561389b5761389a613979565b5b50919050565b60006138ac82613823565b91507fffffffffffffffffffffffffffffffffffffffffffffffffffffffffffffffff8214156138df576138de61391b565b5b600182019050919050565b60006138f582613823565b915061390083613823565b9250826139105761390f61394a565b5b828206905092915050565b7f4e487b7100000000000000000000000000000000000000000000000000000000600052601160045260246000fd5b7f4e487b7100000000000000000000000000000000000000000000000000000000600052601260045260246000fd5b7f4e487b7100000000000000000000000000000000000000000000000000000000600052602260045260246000fd5b7f4e487b7100000000000000000000000000000000000000000000000000000000600052604160045260246000fd5b6000601f19601f8301169050919050565b6139f1816137b9565b81146139fc57600080fd5b50565b613a08816137cb565b8114613a1357600080fd5b50565b613a1f816137d7565b8114613a2a57600080fd5b50565b613a3681613823565b8114613a4157600080fd5b5056fe416e204e465420772f20494420257320686173206265656e206d696e74656420746f2025734142434445464748494a4b4c4d4e4f505152535455565758595a6162636465666768696a6b6c6d6e6f707172737475767778797a303132333435363738392b2fa26469706673582212204c0965fabc6501a63b50922ae17e6f3e7ef1d18a9f58826527334232163434b864736f6c634300080000333c73766720786d6c6e733d27687474703a2f2f7777772e77332e6f72672f323030302f73766727207072657365727665417370656374526174696f3d27784d696e594d696e206d656574272076696577426f783d273020302033353020333530273e3c7374796c653e2e62617365207b2066696c6c3a2077686974653b20666f6e742d66616d696c793a2073657269663b20666f6e742d73697a653a20323470783b207d3c2f7374796c653e3c726563742077696474683d273130302527206865696768743d2731303025272066696c6c3d27626c61636b27202f3e3c7465787420783d273530252720793d273530252720636c6173733d27626173652720646f6d696e616e742d626173656c696e653d276d6964646c652720746578742d616e63686f723d276d6964646c65273e",
  "linkReferences": {},
  "deployedLinkReferences": {}
}